{
  "_format": "hh-sol-artifact-1",
  "contractName": "SocialMediaNFT",
  "sourceName": "contracts/SocialMediaNFT.sol",
  "abi": [
    {
      "inputs": [],
      "stateMutability": "nonpayable",
      "type": "constructor"
    },
    {
      "inputs": [
        {
          "internalType": "address",
          "name": "sender",
          "type": "address"
        },
        {
          "internalType": "uint256",
          "name": "tokenId",
          "type": "uint256"
        },
        {
          "internalType": "address",
          "name": "owner",
          "type": "address"
        }
      ],
      "name": "ERC721IncorrectOwner",
      "type": "error"
    },
    {
      "inputs": [
        {
          "internalType": "address",
          "name": "operator",
          "type": "address"
        },
        {
          "internalType": "uint256",
          "name": "tokenId",
          "type": "uint256"
        }
      ],
      "name": "ERC721InsufficientApproval",
      "type": "error"
    },
    {
      "inputs": [
        {
          "internalType": "address",
          "name": "approver",
          "type": "address"
        }
      ],
      "name": "ERC721InvalidApprover",
      "type": "error"
    },
    {
      "inputs": [
        {
          "internalType": "address",
          "name": "operator",
          "type": "address"
        }
      ],
      "name": "ERC721InvalidOperator",
      "type": "error"
    },
    {
      "inputs": [
        {
          "internalType": "address",
          "name": "owner",
          "type": "address"
        }
      ],
      "name": "ERC721InvalidOwner",
      "type": "error"
    },
    {
      "inputs": [
        {
          "internalType": "address",
          "name": "receiver",
          "type": "address"
        }
      ],
      "name": "ERC721InvalidReceiver",
      "type": "error"
    },
    {
      "inputs": [
        {
          "internalType": "address",
          "name": "sender",
          "type": "address"
        }
      ],
      "name": "ERC721InvalidSender",
      "type": "error"
    },
    {
      "inputs": [
        {
          "internalType": "uint256",
          "name": "tokenId",
          "type": "uint256"
        }
      ],
      "name": "ERC721NonexistentToken",
      "type": "error"
    },
    {
      "inputs": [
        {
          "internalType": "address",
          "name": "owner",
          "type": "address"
        }
      ],
      "name": "OwnableInvalidOwner",
      "type": "error"
    },
    {
      "inputs": [
        {
          "internalType": "address",
          "name": "account",
          "type": "address"
        }
      ],
      "name": "OwnableUnauthorizedAccount",
      "type": "error"
    },
    {
      "anonymous": false,
      "inputs": [
        {
          "indexed": true,
          "internalType": "address",
          "name": "owner",
          "type": "address"
        },
        {
          "indexed": true,
          "internalType": "address",
          "name": "approved",
          "type": "address"
        },
        {
          "indexed": true,
          "internalType": "uint256",
          "name": "tokenId",
          "type": "uint256"
        }
      ],
      "name": "Approval",
      "type": "event"
    },
    {
      "anonymous": false,
      "inputs": [
        {
          "indexed": true,
          "internalType": "address",
          "name": "owner",
          "type": "address"
        },
        {
          "indexed": true,
          "internalType": "address",
          "name": "operator",
          "type": "address"
        },
        {
          "indexed": false,
          "internalType": "bool",
          "name": "approved",
          "type": "bool"
        }
      ],
      "name": "ApprovalForAll",
      "type": "event"
    },
    {
      "anonymous": false,
      "inputs": [
        {
          "indexed": true,
          "internalType": "address",
          "name": "previousOwner",
          "type": "address"
        },
        {
          "indexed": true,
          "internalType": "address",
          "name": "newOwner",
          "type": "address"
        }
      ],
      "name": "OwnershipTransferred",
      "type": "event"
    },
    {
      "anonymous": false,
      "inputs": [
        {
          "indexed": true,
          "internalType": "uint256",
          "name": "postId",
          "type": "uint256"
        },
        {
          "indexed": true,
          "internalType": "address",
          "name": "author",
          "type": "address"
        },
        {
          "indexed": false,
          "internalType": "string",
          "name": "content",
          "type": "string"
        },
        {
          "indexed": false,
          "internalType": "bool",
          "name": "isNFT",
          "type": "bool"
        }
      ],
      "name": "PostCreated",
      "type": "event"
    },
    {
      "anonymous": false,
      "inputs": [
        {
          "indexed": true,
          "internalType": "uint256",
          "name": "postId",
          "type": "uint256"
        },
        {
          "indexed": true,
          "internalType": "address",
          "name": "liker",
          "type": "address"
        }
      ],
      "name": "PostLiked",
      "type": "event"
    },
    {
      "anonymous": false,
      "inputs": [
        {
          "indexed": true,
          "internalType": "uint256",
          "name": "postId",
          "type": "uint256"
        },
        {
          "indexed": true,
          "internalType": "address",
          "name": "unliker",
          "type": "address"
        }
      ],
      "name": "PostUnliked",
      "type": "event"
    },
    {
      "anonymous": false,
      "inputs": [
        {
          "indexed": true,
          "internalType": "address",
          "name": "from",
          "type": "address"
        },
        {
          "indexed": true,
          "internalType": "address",
          "name": "to",
          "type": "address"
        },
        {
          "indexed": true,
          "internalType": "uint256",
          "name": "tokenId",
          "type": "uint256"
        }
      ],
      "name": "Transfer",
      "type": "event"
    },
    {
      "inputs": [
        {
          "internalType": "address",
          "name": "to",
          "type": "address"
        },
        {
          "internalType": "uint256",
          "name": "tokenId",
          "type": "uint256"
        }
      ],
      "name": "approve",
      "outputs": [],
      "stateMutability": "nonpayable",
      "type": "function"
    },
    {
      "inputs": [
        {
          "internalType": "address",
          "name": "owner",
          "type": "address"
        }
      ],
      "name": "balanceOf",
      "outputs": [
        {
          "internalType": "uint256",
          "name": "",
          "type": "uint256"
        }
      ],
      "stateMutability": "view",
      "type": "function"
    },
    {
      "inputs": [
        {
          "internalType": "string",
          "name": "content",
          "type": "string"
        },
        {
          "internalType": "string",
          "name": "mediaURI",
          "type": "string"
        },
        {
          "internalType": "bool",
          "name": "mintAsNFT",
          "type": "bool"
        },
        {
          "internalType": "string",
          "name": "metadata",
          "type": "string"
        }
      ],
      "name": "createPost",
      "outputs": [
        {
          "internalType": "uint256",
          "name": "",
          "type": "uint256"
        }
      ],
      "stateMutability": "nonpayable",
      "type": "function"
    },
    {
      "inputs": [
        {
          "internalType": "uint256",
          "name": "tokenId",
          "type": "uint256"
        }
      ],
      "name": "getApproved",
      "outputs": [
        {
          "internalType": "address",
          "name": "",
          "type": "address"
        }
      ],
      "stateMutability": "view",
      "type": "function"
    },
    {
      "inputs": [
        {
          "internalType": "uint256",
          "name": "postId",
          "type": "uint256"
        }
      ],
      "name": "getPost",
      "outputs": [
        {
          "components": [
            {
              "internalType": "uint256",
              "name": "id",
              "type": "uint256"
            },
            {
              "internalType": "address",
              "name": "author",
              "type": "address"
            },
            {
              "internalType": "string",
              "name": "content",
              "type": "string"
            },
            {
              "internalType": "string",
              "name": "mediaURI",
              "type": "string"
            },
            {
              "internalType": "uint256",
              "name": "likes",
              "type": "uint256"
            },
            {
              "internalType": "uint256",
              "name": "comments",
              "type": "uint256"
            },
            {
              "internalType": "uint256",
              "name": "timestamp",
              "type": "uint256"
            },
            {
              "internalType": "bool",
              "name": "isNFT",
              "type": "bool"
            },
            {
              "internalType": "string",
              "name": "metadata",
              "type": "string"
            }
          ],
          "internalType": "struct SocialMediaNFT.Post",
          "name": "",
          "type": "tuple"
        }
      ],
      "stateMutability": "view",
      "type": "function"
    },
    {
      "inputs": [],
      "name": "getPostCount",
      "outputs": [
        {
          "internalType": "uint256",
          "name": "",
          "type": "uint256"
        }
      ],
      "stateMutability": "view",
      "type": "function"
    },
    {
      "inputs": [
        {
          "internalType": "address",
          "name": "author",
          "type": "address"
        },
        {
          "internalType": "uint256",
          "name": "limit",
          "type": "uint256"
        },
        {
          "internalType": "uint256",
          "name": "offset",
          "type": "uint256"
        }
      ],
      "name": "getPostsByAuthor",
      "outputs": [
        {
          "components": [
            {
              "internalType": "uint256",
              "name": "id",
              "type": "uint256"
            },
            {
              "internalType": "address",
              "name": "author",
              "type": "address"
            },
            {
              "internalType": "string",
              "name": "content",
              "type": "string"
            },
            {
              "internalType": "string",
              "name": "mediaURI",
              "type": "string"
            },
            {
              "internalType": "uint256",
              "name": "likes",
              "type": "uint256"
            },
            {
              "internalType": "uint256",
              "name": "comments",
              "type": "uint256"
            },
            {
              "internalType": "uint256",
              "name": "timestamp",
              "type": "uint256"
            },
            {
              "internalType": "bool",
              "name": "isNFT",
              "type": "bool"
            },
            {
              "internalType": "string",
              "name": "metadata",
              "type": "string"
            }
          ],
          "internalType": "struct SocialMediaNFT.Post[]",
          "name": "",
          "type": "tuple[]"
        }
      ],
      "stateMutability": "view",
      "type": "function"
    },
    {
      "inputs": [
        {
          "internalType": "address",
          "name": "owner",
          "type": "address"
        },
        {
          "internalType": "address",
          "name": "operator",
          "type": "address"
        }
      ],
      "name": "isApprovedForAll",
      "outputs": [
        {
          "internalType": "bool",
          "name": "",
          "type": "bool"
        }
      ],
      "stateMutability": "view",
      "type": "function"
    },
    {
      "inputs": [
        {
          "internalType": "uint256",
          "name": "postId",
          "type": "uint256"
        }
      ],
      "name": "likePost",
      "outputs": [],
      "stateMutability": "nonpayable",
      "type": "function"
    },
    {
      "inputs": [
        {
          "internalType": "uint256",
          "name": "",
          "type": "uint256"
        },
        {
          "internalType": "address",
          "name": "",
          "type": "address"
        }
      ],
      "name": "likedBy",
      "outputs": [
        {
          "internalType": "bool",
          "name": "",
          "type": "bool"
        }
      ],
      "stateMutability": "view",
      "type": "function"
    },
    {
      "inputs": [],
      "name": "name",
      "outputs": [
        {
          "internalType": "string",
          "name": "",
          "type": "string"
        }
      ],
      "stateMutability": "view",
      "type": "function"
    },
    {
      "inputs": [],
      "name": "owner",
      "outputs": [
        {
          "internalType": "address",
          "name": "",
          "type": "address"
        }
      ],
      "stateMutability": "view",
      "type": "function"
    },
    {
      "inputs": [
        {
          "internalType": "uint256",
          "name": "tokenId",
          "type": "uint256"
        }
      ],
      "name": "ownerOf",
      "outputs": [
        {
          "internalType": "address",
          "name": "",
          "type": "address"
        }
      ],
      "stateMutability": "view",
      "type": "function"
    },
    {
      "inputs": [
        {
          "internalType": "uint256",
          "name": "",
          "type": "uint256"
        },
        {
          "internalType": "uint256",
          "name": "",
          "type": "uint256"
        }
      ],
      "name": "postLikers",
      "outputs": [
        {
          "internalType": "address",
          "name": "",
          "type": "address"
        }
      ],
      "stateMutability": "view",
      "type": "function"
    },
    {
      "inputs": [
        {
          "internalType": "uint256",
          "name": "",
          "type": "uint256"
        }
      ],
      "name": "posts",
      "outputs": [
        {
          "internalType": "uint256",
          "name": "id",
          "type": "uint256"
        },
        {
          "internalType": "address",
          "name": "author",
          "type": "address"
        },
        {
          "internalType": "string",
          "name": "content",
          "type": "string"
        },
        {
          "internalType": "string",
          "name": "mediaURI",
          "type": "string"
        },
        {
          "internalType": "uint256",
          "name": "likes",
          "type": "uint256"
        },
        {
          "internalType": "uint256",
          "name": "comments",
          "type": "uint256"
        },
        {
          "internalType": "uint256",
          "name": "timestamp",
          "type": "uint256"
        },
        {
          "internalType": "bool",
          "name": "isNFT",
          "type": "bool"
        },
        {
          "internalType": "string",
          "name": "metadata",
          "type": "string"
        }
      ],
      "stateMutability": "view",
      "type": "function"
    },
    {
      "inputs": [],
      "name": "renounceOwnership",
      "outputs": [],
      "stateMutability": "nonpayable",
      "type": "function"
    },
    {
      "inputs": [
        {
          "internalType": "address",
          "name": "from",
          "type": "address"
        },
        {
          "internalType": "address",
          "name": "to",
          "type": "address"
        },
        {
          "internalType": "uint256",
          "name": "tokenId",
          "type": "uint256"
        }
      ],
      "name": "safeTransferFrom",
      "outputs": [],
      "stateMutability": "nonpayable",
      "type": "function"
    },
    {
      "inputs": [
        {
          "internalType": "address",
          "name": "from",
          "type": "address"
        },
        {
          "internalType": "address",
          "name": "to",
          "type": "address"
        },
        {
          "internalType": "uint256",
          "name": "tokenId",
          "type": "uint256"
        },
        {
          "internalType": "bytes",
          "name": "data",
          "type": "bytes"
        }
      ],
      "name": "safeTransferFrom",
      "outputs": [],
      "stateMutability": "nonpayable",
      "type": "function"
    },
    {
      "inputs": [
        {
          "internalType": "address",
          "name": "operator",
          "type": "address"
        },
        {
          "internalType": "bool",
          "name": "approved",
          "type": "bool"
        }
      ],
      "name": "setApprovalForAll",
      "outputs": [],
      "stateMutability": "nonpayable",
      "type": "function"
    },
    {
      "inputs": [
        {
          "internalType": "bytes4",
          "name": "interfaceId",
          "type": "bytes4"
        }
      ],
      "name": "supportsInterface",
      "outputs": [
        {
          "internalType": "bool",
          "name": "",
          "type": "bool"
        }
      ],
      "stateMutability": "view",
      "type": "function"
    },
    {
      "inputs": [],
      "name": "symbol",
      "outputs": [
        {
          "internalType": "string",
          "name": "",
          "type": "string"
        }
      ],
      "stateMutability": "view",
      "type": "function"
    },
    {
      "inputs": [
        {
          "internalType": "uint256",
          "name": "tokenId",
          "type": "uint256"
        }
      ],
      "name": "tokenURI",
      "outputs": [
        {
          "internalType": "string",
          "name": "",
          "type": "string"
        }
      ],
      "stateMutability": "view",
      "type": "function"
    },
    {
      "inputs": [
        {
          "internalType": "address",
          "name": "from",
          "type": "address"
        },
        {
          "internalType": "address",
          "name": "to",
          "type": "address"
        },
        {
          "internalType": "uint256",
          "name": "tokenId",
          "type": "uint256"
        }
      ],
      "name": "transferFrom",
      "outputs": [],
      "stateMutability": "nonpayable",
      "type": "function"
    },
    {
      "inputs": [
        {
          "internalType": "address",
          "name": "newOwner",
          "type": "address"
        }
      ],
      "name": "transferOwnership",
      "outputs": [],
      "stateMutability": "nonpayable",
      "type": "function"
    },
    {
      "inputs": [
        {
          "internalType": "uint256",
          "name": "postId",
          "type": "uint256"
        }
      ],
      "name": "unlikePost",
      "outputs": [],
      "stateMutability": "nonpayable",
      "type": "function"
    }
  ],
  "bytecode": "0x608060405260016007553480156200001657600080fd5b50336040518060400160405280600f81526020017f536f6369616c4d65646961506f737400000000000000000000000000000000008152506040518060400160405280600381526020017f534d500000000000000000000000000000000000000000000000000000000000815250816000908162000095919062000477565b508060019081620000a7919062000477565b505050600073ffffffffffffffffffffffffffffffffffffffff168173ffffffffffffffffffffffffffffffffffffffff16036200011f5760006040517f1e4fbdf7000000000000000000000000000000000000000000000000000000008152600401620001169190620005a3565b60405180910390fd5b62000130816200013760201b60201c565b50620005c0565b6000600660009054906101000a900473ffffffffffffffffffffffffffffffffffffffff16905081600660006101000a81548173ffffffffffffffffffffffffffffffffffffffff021916908373ffffffffffffffffffffffffffffffffffffffff1602179055508173ffffffffffffffffffffffffffffffffffffffff168173ffffffffffffffffffffffffffffffffffffffff167f8be0079c531659141344cd1fd0a4f28419497f9722a3daafe3b4186f6b6457e060405160405180910390a35050565b600081519050919050565b7f4e487b7100000000000000000000000000000000000000000000000000000000600052604160045260246000fd5b7f4e487b7100000000000000000000000000000000000000000000000000000000600052602260045260246000fd5b600060028204905060018216806200027f57607f821691505b60208210810362000295576200029462000237565b5b50919050565b60008190508160005260206000209050919050565b60006020601f8301049050919050565b600082821b905092915050565b600060088302620002ff7fffffffffffffffffffffffffffffffffffffffffffffffffffffffffffffffff82620002c0565b6200030b8683620002c0565b95508019841693508086168417925050509392505050565b6000819050919050565b6000819050919050565b600062000358620003526200034c8462000323565b6200032d565b62000323565b9050919050565b6000819050919050565b620003748362000337565b6200038c62000383826200035f565b848454620002cd565b825550505050565b600090565b620003a362000394565b620003b081848462000369565b505050565b5b81811015620003d857620003cc60008262000399565b600181019050620003b6565b5050565b601f8211156200042757620003f1816200029b565b620003fc84620002b0565b810160208510156200040c578190505b620004246200041b85620002b0565b830182620003b5565b50505b505050565b600082821c905092915050565b60006200044c600019846008026200042c565b1980831691505092915050565b600062000467838362000439565b9150826002028217905092915050565b6200048282620001fd565b67ffffffffffffffff8111156200049e576200049d62000208565b5b620004aa825462000266565b620004b7828285620003dc565b600060209050601f831160018114620004ef5760008415620004da578287015190505b620004e6858262000459565b86555062000556565b601f198416620004ff866200029b565b60005b82811015620005295784890151825560018201915060208501945060208101905062000502565b8683101562000549578489015162000545601f89168262000439565b8355505b6001600288020188555050505b505050505050565b600073ffffffffffffffffffffffffffffffffffffffff82169050919050565b60006200058b826200055e565b9050919050565b6200059d816200057e565b82525050565b6000602082019050620005ba600083018462000592565b92915050565b613d9a80620005d06000396000f3fe608060405234801561001057600080fd5b50600436106101735760003560e01c8063715018a6116100de578063bcc9540711610097578063e985e9c511610071578063e985e9c51461048a578063f2fde38b146104ba578063fa05546a146104d6578063fa188de91461050657610173565b8063bcc954071461040c578063c0a199631461042a578063c87b56dd1461045a57610173565b8063715018a614610372578063725009d31461037c5780638da5cb5b1461039857806395d89b41146103b6578063a22cb465146103d4578063b88d4fde146103f057610173565b806323b872dd1161013057806323b872dd1461027a5780632fd2a29e1461029657806340731c24146102c657806342842e0e146102f65780636352211e1461031257806370a082311461034257610173565b806301ffc9a7146101785780630503cd21146101a857806306fdde03146101d8578063081812fc146101f6578063095ea7b3146102265780630b1e7f8314610242575b600080fd5b610192600480360381019061018d9190612abb565b610522565b60405161019f9190612b03565b60405180910390f35b6101c260048036038101906101bd9190612bb2565b610604565b6040516101cf9190612e57565b60405180910390f35b6101e0610a7b565b6040516101ed9190612ec3565b60405180910390f35b610210600480360381019061020b9190612ee5565b610b0d565b60405161021d9190612f21565b60405180910390f35b610240600480360381019061023b9190612f3c565b610b29565b005b61025c60048036038101906102579190612ee5565b610b3f565b60405161027199989796959493929190612f8b565b60405180910390f35b610294600480360381019061028f919061302d565b610d52565b005b6102b060048036038101906102ab91906131e1565b610e54565b6040516102bd919061329c565b60405180910390f35b6102e060048036038101906102db9190612ee5565b611024565b6040516102ed919061338a565b60405180910390f35b610310600480360381019061030b919061302d565b6112a1565b005b61032c60048036038101906103279190612ee5565b6112c1565b6040516103399190612f21565b60405180910390f35b61035c600480360381019061035791906133ac565b6112d3565b604051610369919061329c565b60405180910390f35b61037a61138d565b005b61039660048036038101906103919190612ee5565b6113a1565b005b6103a06115e8565b6040516103ad9190612f21565b60405180910390f35b6103be611612565b6040516103cb9190612ec3565b60405180910390f35b6103ee60048036038101906103e991906133d9565b6116a4565b005b61040a600480360381019061040591906134ba565b6116ba565b005b6104146116df565b604051610421919061329c565b60405180910390f35b610444600480360381019061043f919061353d565b6116f5565b6040516104519190612b03565b60405180910390f35b610474600480360381019061046f9190612ee5565b611724565b6040516104819190612ec3565b60405180910390f35b6104a4600480360381019061049f919061357d565b611843565b6040516104b19190612b03565b60405180910390f35b6104d460048036038101906104cf91906133ac565b6118d7565b005b6104f060048036038101906104eb91906135bd565b61195d565b6040516104fd9190612f21565b60405180910390f35b610520600480360381019061051b9190612ee5565b6119ab565b005b60007f80ac58cd000000000000000000000000000000000000000000000000000000007bffffffffffffffffffffffffffffffffffffffffffffffffffffffff1916827bffffffffffffffffffffffffffffffffffffffffffffffffffffffff191614806105ed57507f5b5e139f000000000000000000000000000000000000000000000000000000007bffffffffffffffffffffffffffffffffffffffffffffffffffffffff1916827bffffffffffffffffffffffffffffffffffffffffffffffffffffffff1916145b806105fd57506105fc82611d1c565b5b9050919050565b60606000808467ffffffffffffffff8111156106235761062261308a565b5b6040519080825280602002602001820160405280156106515781602001602082028036833780820191505090505b5090506000600190505b60075481101561073b578673ffffffffffffffffffffffffffffffffffffffff166008600083815260200190815260200160002060010160009054906101000a900473ffffffffffffffffffffffffffffffffffffffff1673ffffffffffffffffffffffffffffffffffffffff1603610728578483101580156106e8575085856106e5919061362c565b83105b1561071957808286856106fb9190613660565b8151811061070c5761070b613694565b5b6020026020010181815250505b8280610724906136c3565b9350505b8080610733906136c3565b91505061065b565b50600061075386868561074e9190613660565b611d86565b67ffffffffffffffff81111561076c5761076b61308a565b5b6040519080825280602002602001820160405280156107a557816020015b6107926129eb565b81526020019060019003908161078a5790505b50905060005b8151811015610a6d57600860008483815181106107cb576107ca613694565b5b6020026020010151815260200190815260200160002060405180610120016040529081600082015481526020016001820160009054906101000a900473ffffffffffffffffffffffffffffffffffffffff1673ffffffffffffffffffffffffffffffffffffffff1673ffffffffffffffffffffffffffffffffffffffff16815260200160028201805461085d9061373a565b80601f01602080910402602001604051908101604052809291908181526020018280546108899061373a565b80156108d65780601f106108ab576101008083540402835291602001916108d6565b820191906000526020600020905b8154815290600101906020018083116108b957829003601f168201915b505050505081526020016003820180546108ef9061373a565b80601f016020809104026020016040519081016040528092919081815260200182805461091b9061373a565b80156109685780601f1061093d57610100808354040283529160200191610968565b820191906000526020600020905b81548152906001019060200180831161094b57829003601f168201915b505050505081526020016004820154815260200160058201548152602001600682015481526020016007820160009054906101000a900460ff161515151581526020016008820180546109ba9061373a565b80601f01602080910402602001604051908101604052809291908181526020018280546109e69061373a565b8015610a335780601f10610a0857610100808354040283529160200191610a33565b820191906000526020600020905b815481529060010190602001808311610a1657829003601f168201915b505050505081525050828281518110610a4f57610a4e613694565b5b60200260200101819052508080610a65906136c3565b9150506107ab565b508093505050509392505050565b606060008054610a8a9061373a565b80601f0160208091040260200160405190810160405280929190818152602001828054610ab69061373a565b8015610b035780601f10610ad857610100808354040283529160200191610b03565b820191906000526020600020905b815481529060010190602001808311610ae657829003601f168201915b5050505050905090565b6000610b1882611d9d565b50610b2282611e25565b9050919050565b610b3b8282610b36611e62565b611e6a565b5050565b60086020528060005260406000206000915090508060000154908060010160009054906101000a900473ffffffffffffffffffffffffffffffffffffffff1690806002018054610b8e9061373a565b80601f0160208091040260200160405190810160405280929190818152602001828054610bba9061373a565b8015610c075780601f10610bdc57610100808354040283529160200191610c07565b820191906000526020600020905b815481529060010190602001808311610bea57829003601f168201915b505050505090806003018054610c1c9061373a565b80601f0160208091040260200160405190810160405280929190818152602001828054610c489061373a565b8015610c955780601f10610c6a57610100808354040283529160200191610c95565b820191906000526020600020905b815481529060010190602001808311610c7857829003601f168201915b5050505050908060040154908060050154908060060154908060070160009054906101000a900460ff1690806008018054610ccf9061373a565b80601f0160208091040260200160405190810160405280929190818152602001828054610cfb9061373a565b8015610d485780601f10610d1d57610100808354040283529160200191610d48565b820191906000526020600020905b815481529060010190602001808311610d2b57829003601f168201915b5050505050905089565b600073ffffffffffffffffffffffffffffffffffffffff168273ffffffffffffffffffffffffffffffffffffffff1603610dc45760006040517f64a0ae92000000000000000000000000000000000000000000000000000000008152600401610dbb9190612f21565b60405180910390fd5b6000610dd88383610dd3611e62565b611e7c565b90508373ffffffffffffffffffffffffffffffffffffffff168173ffffffffffffffffffffffffffffffffffffffff1614610e4e578382826040517f64283d7b000000000000000000000000000000000000000000000000000000008152600401610e459392919061376b565b60405180910390fd5b50505050565b600080600754905060076000815480929190610e6f906136c3565b91905055506040518061012001604052808281526020013373ffffffffffffffffffffffffffffffffffffffff1681526020018781526020018681526020016000815260200160008152602001428152602001851515815260200184815250600860008381526020019081526020016000206000820151816000015560208201518160010160006101000a81548173ffffffffffffffffffffffffffffffffffffffff021916908373ffffffffffffffffffffffffffffffffffffffff1602179055506040820151816002019081610f47919061394e565b506060820151816003019081610f5d919061394e565b506080820151816004015560a0820151816005015560c0820151816006015560e08201518160070160006101000a81548160ff021916908315150217905550610100820151816008019081610fb2919061394e565b509050508315610fc757610fc63382612096565b5b3373ffffffffffffffffffffffffffffffffffffffff16817fd29c05ce35227cd87e52d185ea77a88bf947eb152c22f5206a691fa5c64299d08887604051611010929190613a20565b60405180910390a380915050949350505050565b61102c6129eb565b6008600083815260200190815260200160002060405180610120016040529081600082015481526020016001820160009054906101000a900473ffffffffffffffffffffffffffffffffffffffff1673ffffffffffffffffffffffffffffffffffffffff1673ffffffffffffffffffffffffffffffffffffffff1681526020016002820180546110bb9061373a565b80601f01602080910402602001604051908101604052809291908181526020018280546110e79061373a565b80156111345780601f1061110957610100808354040283529160200191611134565b820191906000526020600020905b81548152906001019060200180831161111757829003601f168201915b5050505050815260200160038201805461114d9061373a565b80601f01602080910402602001604051908101604052809291908181526020018280546111799061373a565b80156111c65780601f1061119b576101008083540402835291602001916111c6565b820191906000526020600020905b8154815290600101906020018083116111a957829003601f168201915b505050505081526020016004820154815260200160058201548152602001600682015481526020016007820160009054906101000a900460ff161515151581526020016008820180546112189061373a565b80601f01602080910402602001604051908101604052809291908181526020018280546112449061373a565b80156112915780601f1061126657610100808354040283529160200191611291565b820191906000526020600020905b81548152906001019060200180831161127457829003601f168201915b5050505050815250509050919050565b6112bc838383604051806020016040528060008152506116ba565b505050565b60006112cc82611d9d565b9050919050565b60008073ffffffffffffffffffffffffffffffffffffffff168273ffffffffffffffffffffffffffffffffffffffff16036113465760006040517f89c62b6400000000000000000000000000000000000000000000000000000000815260040161133d9190612f21565b60405180910390fd5b600360008373ffffffffffffffffffffffffffffffffffffffff1673ffffffffffffffffffffffffffffffffffffffff168152602001908152602001600020549050919050565b6113956120b4565b61139f600061213b565b565b60006008600083815260200190815260200160002060000154036113fa576040517f08c379a00000000000000000000000000000000000000000000000000000000081526004016113f190613a9c565b60405180910390fd5b6009600082815260200190815260200160002060003373ffffffffffffffffffffffffffffffffffffffff1673ffffffffffffffffffffffffffffffffffffffff16815260200190815260200160002060009054906101000a900460ff1615611498576040517f08c379a000000000000000000000000000000000000000000000000000000000815260040161148f90613b08565b60405180910390fd5b6008600082815260200190815260200160002060040160008154809291906114bf906136c3565b919050555060016009600083815260200190815260200160002060003373ffffffffffffffffffffffffffffffffffffffff1673ffffffffffffffffffffffffffffffffffffffff16815260200190815260200160002060006101000a81548160ff021916908315150217905550600a6000828152602001908152602001600020339080600181540180825580915050600190039060005260206000200160009091909190916101000a81548173ffffffffffffffffffffffffffffffffffffffff021916908373ffffffffffffffffffffffffffffffffffffffff1602179055503373ffffffffffffffffffffffffffffffffffffffff16817fcf765d6f163c9b0d832e2a94f4c8e9bffd32a2c3ca5fdbb8cc67b5fe1441f41360405160405180910390a350565b6000600660009054906101000a900473ffffffffffffffffffffffffffffffffffffffff16905090565b6060600180546116219061373a565b80601f016020809104026020016040519081016040528092919081815260200182805461164d9061373a565b801561169a5780601f1061166f5761010080835404028352916020019161169a565b820191906000526020600020905b81548152906001019060200180831161167d57829003601f168201915b5050505050905090565b6116b66116af611e62565b8383612201565b5050565b6116c5848484610d52565b6116d96116d0611e62565b85858585612370565b50505050565b600060016007546116f09190613660565b905090565b60096020528160005260406000206020528060005260406000206000915091509054906101000a900460ff1681565b6060600073ffffffffffffffffffffffffffffffffffffffff16611747836112c1565b73ffffffffffffffffffffffffffffffffffffffff160361179d576040517f08c379a000000000000000000000000000000000000000000000000000000000815260040161179490613b74565b60405180910390fd5b6008600083815260200190815260200160002060080180546117be9061373a565b80601f01602080910402602001604051908101604052809291908181526020018280546117ea9061373a565b80156118375780601f1061180c57610100808354040283529160200191611837565b820191906000526020600020905b81548152906001019060200180831161181a57829003601f168201915b50505050509050919050565b6000600560008473ffffffffffffffffffffffffffffffffffffffff1673ffffffffffffffffffffffffffffffffffffffff16815260200190815260200160002060008373ffffffffffffffffffffffffffffffffffffffff1673ffffffffffffffffffffffffffffffffffffffff16815260200190815260200160002060009054906101000a900460ff16905092915050565b6118df6120b4565b600073ffffffffffffffffffffffffffffffffffffffff168173ffffffffffffffffffffffffffffffffffffffff16036119515760006040517f1e4fbdf70000000000000000000000000000000000000000000000000000000081526004016119489190612f21565b60405180910390fd5b61195a8161213b565b50565b600a602052816000526040600020818154811061197957600080fd5b906000526020600020016000915091509054906101000a900473ffffffffffffffffffffffffffffffffffffffff1681565b6000600860008381526020019081526020016000206000015403611a04576040517f08c379a00000000000000000000000000000000000000000000000000000000081526004016119fb90613a9c565b60405180910390fd5b6009600082815260200190815260200160002060003373ffffffffffffffffffffffffffffffffffffffff1673ffffffffffffffffffffffffffffffffffffffff16815260200190815260200160002060009054906101000a900460ff16611aa1576040517f08c379a0000000000000000000000000000000000000000000000000000000008152600401611a9890613be0565b60405180910390fd5b600860008281526020019081526020016000206004016000815480929190611ac890613c00565b919050555060006009600083815260200190815260200160002060003373ffffffffffffffffffffffffffffffffffffffff1673ffffffffffffffffffffffffffffffffffffffff16815260200190815260200160002060006101000a81548160ff0219169083151502179055506000600a6000838152602001908152602001600020905060005b8180549050811015611cd3573373ffffffffffffffffffffffffffffffffffffffff16828281548110611b8657611b85613694565b5b9060005260206000200160009054906101000a900473ffffffffffffffffffffffffffffffffffffffff1673ffffffffffffffffffffffffffffffffffffffff1603611cc0578160018380549050611bde9190613660565b81548110611bef57611bee613694565b5b9060005260206000200160009054906101000a900473ffffffffffffffffffffffffffffffffffffffff16828281548110611c2d57611c2c613694565b5b9060005260206000200160006101000a81548173ffffffffffffffffffffffffffffffffffffffff021916908373ffffffffffffffffffffffffffffffffffffffff16021790555081805480611c8657611c85613c29565b5b6001900381819060005260206000200160006101000a81549073ffffffffffffffffffffffffffffffffffffffff02191690559055611cd3565b8080611ccb906136c3565b915050611b50565b503373ffffffffffffffffffffffffffffffffffffffff16827f82092d1196022c48d901e5dc4b17451dbce942b8a9ded42fc6f2a4a5e8fd89b960405160405180910390a35050565b60007f01ffc9a7000000000000000000000000000000000000000000000000000000007bffffffffffffffffffffffffffffffffffffffffffffffffffffffff1916827bffffffffffffffffffffffffffffffffffffffffffffffffffffffff1916149050919050565b6000611d958284108484612521565b905092915050565b600080611da98361253b565b9050600073ffffffffffffffffffffffffffffffffffffffff168173ffffffffffffffffffffffffffffffffffffffff1603611e1c57826040517f7e273289000000000000000000000000000000000000000000000000000000008152600401611e13919061329c565b60405180910390fd5b80915050919050565b60006004600083815260200190815260200160002060009054906101000a900473ffffffffffffffffffffffffffffffffffffffff169050919050565b600033905090565b611e778383836001612578565b505050565b600080611e888461253b565b9050600073ffffffffffffffffffffffffffffffffffffffff168373ffffffffffffffffffffffffffffffffffffffff1614611eca57611ec981848661273d565b5b600073ffffffffffffffffffffffffffffffffffffffff168173ffffffffffffffffffffffffffffffffffffffff1614611f5b57611f0c600085600080612578565b6001600360008373ffffffffffffffffffffffffffffffffffffffff1673ffffffffffffffffffffffffffffffffffffffff168152602001908152602001600020600082825403925050819055505b600073ffffffffffffffffffffffffffffffffffffffff168573ffffffffffffffffffffffffffffffffffffffff1614611fde576001600360008773ffffffffffffffffffffffffffffffffffffffff1673ffffffffffffffffffffffffffffffffffffffff168152602001908152602001600020600082825401925050819055505b846002600086815260200190815260200160002060006101000a81548173ffffffffffffffffffffffffffffffffffffffff021916908373ffffffffffffffffffffffffffffffffffffffff160217905550838573ffffffffffffffffffffffffffffffffffffffff168273ffffffffffffffffffffffffffffffffffffffff167fddf252ad1be2c89b69c2b068fc378daa952ba7f163c4a11628f55a4df523b3ef60405160405180910390a4809150509392505050565b6120b0828260405180602001604052806000815250612801565b5050565b6120bc611e62565b73ffffffffffffffffffffffffffffffffffffffff166120da6115e8565b73ffffffffffffffffffffffffffffffffffffffff1614612139576120fd611e62565b6040517f118cdaa70000000000000000000000000000000000000000000000000000000081526004016121309190612f21565b60405180910390fd5b565b6000600660009054906101000a900473ffffffffffffffffffffffffffffffffffffffff16905081600660006101000a81548173ffffffffffffffffffffffffffffffffffffffff021916908373ffffffffffffffffffffffffffffffffffffffff1602179055508173ffffffffffffffffffffffffffffffffffffffff168173ffffffffffffffffffffffffffffffffffffffff167f8be0079c531659141344cd1fd0a4f28419497f9722a3daafe3b4186f6b6457e060405160405180910390a35050565b600073ffffffffffffffffffffffffffffffffffffffff168273ffffffffffffffffffffffffffffffffffffffff160361227257816040517f5b08ba180000000000000000000000000000000000000000000000000000000081526004016122699190612f21565b60405180910390fd5b80600560008573ffffffffffffffffffffffffffffffffffffffff1673ffffffffffffffffffffffffffffffffffffffff16815260200190815260200160002060008473ffffffffffffffffffffffffffffffffffffffff1673ffffffffffffffffffffffffffffffffffffffff16815260200190815260200160002060006101000a81548160ff0219169083151502179055508173ffffffffffffffffffffffffffffffffffffffff168373ffffffffffffffffffffffffffffffffffffffff167f17307eab39ab6107e8899845ad3d59bd9653f200f220920489ca2b5937696c31836040516123639190612b03565b60405180910390a3505050565b60008373ffffffffffffffffffffffffffffffffffffffff163b111561251a578273ffffffffffffffffffffffffffffffffffffffff1663150b7a02868685856040518563ffffffff1660e01b81526004016123cf9493929190613cad565b6020604051808303816000875af192505050801561240b57506040513d601f19601f820116820180604052508101906124089190613d0e565b60015b61248f573d806000811461243b576040519150601f19603f3d011682016040523d82523d6000602084013e612440565b606091505b50600081510361248757836040517f64a0ae9200000000000000000000000000000000000000000000000000000000815260040161247e9190612f21565b60405180910390fd5b805160208201fd5b63150b7a0260e01b7bffffffffffffffffffffffffffffffffffffffffffffffffffffffff1916817bffffffffffffffffffffffffffffffffffffffffffffffffffffffff19161461251857836040517f64a0ae9200000000000000000000000000000000000000000000000000000000815260040161250f9190612f21565b60405180910390fd5b505b5050505050565b600061252c84612825565b82841802821890509392505050565b60006002600083815260200190815260200160002060009054906101000a900473ffffffffffffffffffffffffffffffffffffffff169050919050565b80806125b15750600073ffffffffffffffffffffffffffffffffffffffff168273ffffffffffffffffffffffffffffffffffffffff1614155b156126e55760006125c184611d9d565b9050600073ffffffffffffffffffffffffffffffffffffffff168373ffffffffffffffffffffffffffffffffffffffff161415801561262c57508273ffffffffffffffffffffffffffffffffffffffff168173ffffffffffffffffffffffffffffffffffffffff1614155b801561263f575061263d8184611843565b155b1561268157826040517fa9fbf51f0000000000000000000000000000000000000000000000000000000081526004016126789190612f21565b60405180910390fd5b81156126e357838573ffffffffffffffffffffffffffffffffffffffff168273ffffffffffffffffffffffffffffffffffffffff167f8c5be1e5ebec7d5bd14f71427d1e84f3dd0314c0f7b2291e5b200ac8c7c3b92560405160405180910390a45b505b836004600085815260200190815260200160002060006101000a81548173ffffffffffffffffffffffffffffffffffffffff021916908373ffffffffffffffffffffffffffffffffffffffff16021790555050505050565b612748838383612831565b6127fc57600073ffffffffffffffffffffffffffffffffffffffff168373ffffffffffffffffffffffffffffffffffffffff16036127bd57806040517f7e2732890000000000000000000000000000000000000000000000000000000081526004016127b4919061329c565b60405180910390fd5b81816040517f177e802f0000000000000000000000000000000000000000000000000000000081526004016127f3929190613d3b565b60405180910390fd5b505050565b61280b83836128f2565b612820612816611e62565b6000858585612370565b505050565b60008115159050919050565b60008073ffffffffffffffffffffffffffffffffffffffff168373ffffffffffffffffffffffffffffffffffffffff16141580156128e957508273ffffffffffffffffffffffffffffffffffffffff168473ffffffffffffffffffffffffffffffffffffffff1614806128aa57506128a98484611843565b5b806128e857508273ffffffffffffffffffffffffffffffffffffffff166128d083611e25565b73ffffffffffffffffffffffffffffffffffffffff16145b5b90509392505050565b600073ffffffffffffffffffffffffffffffffffffffff168273ffffffffffffffffffffffffffffffffffffffff16036129645760006040517f64a0ae9200000000000000000000000000000000000000000000000000000000815260040161295b9190612f21565b60405180910390fd5b600061297283836000611e7c565b9050600073ffffffffffffffffffffffffffffffffffffffff168173ffffffffffffffffffffffffffffffffffffffff16146129e65760006040517f73c6ac6e0000000000000000000000000000000000000000000000000000000081526004016129dd9190612f21565b60405180910390fd5b505050565b60405180610120016040528060008152602001600073ffffffffffffffffffffffffffffffffffffffff1681526020016060815260200160608152602001600081526020016000815260200160008152602001600015158152602001606081525090565b6000604051905090565b600080fd5b600080fd5b60007fffffffff0000000000000000000000000000000000000000000000000000000082169050919050565b612a9881612a63565b8114612aa357600080fd5b50565b600081359050612ab581612a8f565b92915050565b600060208284031215612ad157612ad0612a59565b5b6000612adf84828501612aa6565b91505092915050565b60008115159050919050565b612afd81612ae8565b82525050565b6000602082019050612b186000830184612af4565b92915050565b600073ffffffffffffffffffffffffffffffffffffffff82169050919050565b6000612b4982612b1e565b9050919050565b612b5981612b3e565b8114612b6457600080fd5b50565b600081359050612b7681612b50565b92915050565b6000819050919050565b612b8f81612b7c565b8114612b9a57600080fd5b50565b600081359050612bac81612b86565b92915050565b600080600060608486031215612bcb57612bca612a59565b5b6000612bd986828701612b67565b9350506020612bea86828701612b9d565b9250506040612bfb86828701612b9d565b9150509250925092565b600081519050919050565b600082825260208201905092915050565b6000819050602082019050919050565b612c3a81612b7c565b82525050565b612c4981612b3e565b82525050565b600081519050919050565b600082825260208201905092915050565b60005b83811015612c89578082015181840152602081019050612c6e565b60008484015250505050565b6000601f19601f8301169050919050565b6000612cb182612c4f565b612cbb8185612c5a565b9350612ccb818560208601612c6b565b612cd481612c95565b840191505092915050565b612ce881612ae8565b82525050565b600061012083016000830151612d076000860182612c31565b506020830151612d1a6020860182612c40565b5060408301518482036040860152612d328282612ca6565b91505060608301518482036060860152612d4c8282612ca6565b9150506080830151612d616080860182612c31565b5060a0830151612d7460a0860182612c31565b5060c0830151612d8760c0860182612c31565b5060e0830151612d9a60e0860182612cdf565b50610100830151848203610100860152612db48282612ca6565b9150508091505092915050565b6000612dcd8383612cee565b905092915050565b6000602082019050919050565b6000612ded82612c05565b612df78185612c10565b935083602082028501612e0985612c21565b8060005b85811015612e455784840389528151612e268582612dc1565b9450612e3183612dd5565b925060208a01995050600181019050612e0d565b50829750879550505050505092915050565b60006020820190508181036000830152612e718184612de2565b905092915050565b600082825260208201905092915050565b6000612e9582612c4f565b612e9f8185612e79565b9350612eaf818560208601612c6b565b612eb881612c95565b840191505092915050565b60006020820190508181036000830152612edd8184612e8a565b905092915050565b600060208284031215612efb57612efa612a59565b5b6000612f0984828501612b9d565b91505092915050565b612f1b81612b3e565b82525050565b6000602082019050612f366000830184612f12565b92915050565b60008060408385031215612f5357612f52612a59565b5b6000612f6185828601612b67565b9250506020612f7285828601612b9d565b9150509250929050565b612f8581612b7c565b82525050565b600061012082019050612fa1600083018c612f7c565b612fae602083018b612f12565b8181036040830152612fc0818a612e8a565b90508181036060830152612fd48189612e8a565b9050612fe36080830188612f7c565b612ff060a0830187612f7c565b612ffd60c0830186612f7c565b61300a60e0830185612af4565b81810361010083015261301d8184612e8a565b90509a9950505050505050505050565b60008060006060848603121561304657613045612a59565b5b600061305486828701612b67565b935050602061306586828701612b67565b925050604061307686828701612b9d565b9150509250925092565b600080fd5b600080fd5b7f4e487b7100000000000000000000000000000000000000000000000000000000600052604160045260246000fd5b6130c282612c95565b810181811067ffffffffffffffff821117156130e1576130e061308a565b5b80604052505050565b60006130f4612a4f565b905061310082826130b9565b919050565b600067ffffffffffffffff8211156131205761311f61308a565b5b61312982612c95565b9050602081019050919050565b82818337600083830152505050565b600061315861315384613105565b6130ea565b90508281526020810184848401111561317457613173613085565b5b61317f848285613136565b509392505050565b600082601f83011261319c5761319b613080565b5b81356131ac848260208601613145565b91505092915050565b6131be81612ae8565b81146131c957600080fd5b50565b6000813590506131db816131b5565b92915050565b600080600080608085870312156131fb576131fa612a59565b5b600085013567ffffffffffffffff81111561321957613218612a5e565b5b61322587828801613187565b945050602085013567ffffffffffffffff81111561324657613245612a5e565b5b61325287828801613187565b9350506040613263878288016131cc565b925050606085013567ffffffffffffffff81111561328457613283612a5e565b5b61329087828801613187565b91505092959194509250565b60006020820190506132b16000830184612f7c565b92915050565b6000610120830160008301516132d06000860182612c31565b5060208301516132e36020860182612c40565b50604083015184820360408601526132fb8282612ca6565b915050606083015184820360608601526133158282612ca6565b915050608083015161332a6080860182612c31565b5060a083015161333d60a0860182612c31565b5060c083015161335060c0860182612c31565b5060e083015161336360e0860182612cdf565b5061010083015184820361010086015261337d8282612ca6565b9150508091505092915050565b600060208201905081810360008301526133a481846132b7565b905092915050565b6000602082840312156133c2576133c1612a59565b5b60006133d084828501612b67565b91505092915050565b600080604083850312156133f0576133ef612a59565b5b60006133fe85828601612b67565b925050602061340f858286016131cc565b9150509250929050565b600067ffffffffffffffff8211156134345761343361308a565b5b61343d82612c95565b9050602081019050919050565b600061345d61345884613419565b6130ea565b90508281526020810184848401111561347957613478613085565b5b613484848285613136565b509392505050565b600082601f8301126134a1576134a0613080565b5b81356134b184826020860161344a565b91505092915050565b600080600080608085870312156134d4576134d3612a59565b5b60006134e287828801612b67565b94505060206134f387828801612b67565b935050604061350487828801612b9d565b925050606085013567ffffffffffffffff81111561352557613524612a5e565b5b6135318782880161348c565b91505092959194509250565b6000806040838503121561355457613553612a59565b5b600061356285828601612b9d565b925050602061357385828601612b67565b9150509250929050565b6000806040838503121561359457613593612a59565b5b60006135a285828601612b67565b92505060206135b385828601612b67565b9150509250929050565b600080604083850312156135d4576135d3612a59565b5b60006135e285828601612b9d565b92505060206135f385828601612b9d565b9150509250929050565b7f4e487b7100000000000000000000000000000000000000000000000000000000600052601160045260246000fd5b600061363782612b7c565b915061364283612b7c565b925082820190508082111561365a576136596135fd565b5b92915050565b600061366b82612b7c565b915061367683612b7c565b925082820390508181111561368e5761368d6135fd565b5b92915050565b7f4e487b7100000000000000000000000000000000000000000000000000000000600052603260045260246000fd5b60006136ce82612b7c565b91507fffffffffffffffffffffffffffffffffffffffffffffffffffffffffffffffff8203613700576136ff6135fd565b5b600182019050919050565b7f4e487b7100000000000000000000000000000000000000000000000000000000600052602260045260246000fd5b6000600282049050600182168061375257607f821691505b6020821081036137655761376461370b565b5b50919050565b60006060820190506137806000830186612f12565b61378d6020830185612f7c565b61379a6040830184612f12565b949350505050565b60008190508160005260206000209050919050565b60006020601f8301049050919050565b600082821b905092915050565b6000600883026138047fffffffffffffffffffffffffffffffffffffffffffffffffffffffffffffffff826137c7565b61380e86836137c7565b95508019841693508086168417925050509392505050565b6000819050919050565b600061384b61384661384184612b7c565b613826565b612b7c565b9050919050565b6000819050919050565b61386583613830565b61387961387182613852565b8484546137d4565b825550505050565b600090565b61388e613881565b61389981848461385c565b505050565b5b818110156138bd576138b2600082613886565b60018101905061389f565b5050565b601f821115613902576138d3816137a2565b6138dc846137b7565b810160208510156138eb578190505b6138ff6138f7856137b7565b83018261389e565b50505b505050565b600082821c905092915050565b600061392560001984600802613907565b1980831691505092915050565b600061393e8383613914565b9150826002028217905092915050565b61395782612c4f565b67ffffffffffffffff8111156139705761396f61308a565b5b61397a825461373a565b6139858282856138c1565b600060209050601f8311600181146139b857600084156139a6578287015190505b6139b08582613932565b865550613a18565b601f1984166139c6866137a2565b60005b828110156139ee578489015182556001820191506020850194506020810190506139c9565b86831015613a0b5784890151613a07601f891682613914565b8355505b6001600288020188555050505b505050505050565b60006040820190508181036000830152613a3a8185612e8a565b9050613a496020830184612af4565b9392505050565b7f506f737420646f6573206e6f7420657869737400000000000000000000000000600082015250565b6000613a86601383612e79565b9150613a9182613a50565b602082019050919050565b60006020820190508181036000830152613ab581613a79565b9050919050565b7f416c7265616479206c696b656400000000000000000000000000000000000000600082015250565b6000613af2600d83612e79565b9150613afd82613abc565b602082019050919050565b60006020820190508181036000830152613b2181613ae5565b9050919050565b7f55524920717565727920666f72206e6f6e6578697374656e7420746f6b656e00600082015250565b6000613b5e601f83612e79565b9150613b6982613b28565b602082019050919050565b60006020820190508181036000830152613b8d81613b51565b9050919050565b7f4e6f74206c696b65640000000000000000000000000000000000000000000000600082015250565b6000613bca600983612e79565b9150613bd582613b94565b602082019050919050565b60006020820190508181036000830152613bf981613bbd565b9050919050565b6000613c0b82612b7c565b915060008203613c1e57613c1d6135fd565b5b600182039050919050565b7f4e487b7100000000000000000000000000000000000000000000000000000000600052603160045260246000fd5b600081519050919050565b600082825260208201905092915050565b6000613c7f82613c58565b613c898185613c63565b9350613c99818560208601612c6b565b613ca281612c95565b840191505092915050565b6000608082019050613cc26000830187612f12565b613ccf6020830186612f12565b613cdc6040830185612f7c565b8181036060830152613cee8184613c74565b905095945050505050565b600081519050613d0881612a8f565b92915050565b600060208284031215613d2457613d23612a59565b5b6000613d3284828501613cf9565b91505092915050565b6000604082019050613d506000830185612f12565b613d5d6020830184612f7c565b939250505056fea26469706673582212206f27a952fa0e2f3bbd93fc2a6dddedc4acec9eda47d57d0b8b34a967e265e85364736f6c63430008150033",
  "linkReferences": {},
  "deployedLinkReferences": {}
}