{
  "_format": "hh-sol-artifact-1",
  "contractName": "Moderation",
  "sourceName": "contracts/Moderation.sol",
  "abi": [
    {
      "anonymous": false,
      "inputs": [
        {
          "indexed": true,
          "internalType": "address",
          "name": "user",
          "type": "address"
        },
        {
          "indexed": true,
          "internalType": "uint256",
          "name": "contentId",
          "type": "uint256"
        },
        {
          "indexed": false,
          "internalType": "uint8",
          "name": "score",
          "type": "uint8"
        }
      ],
      "name": "Feedback",
      "type": "event"
    },
    {
      "inputs": [
        {
          "internalType": "uint256",
          "name": "contentId",
          "type": "uint256"
        },
        {
          "internalType": "uint8",
          "name": "score",
          "type": "uint8"
        }
      ],
      "name": "submitFeedback",
      "outputs": [],
      "stateMutability": "nonpayable",
      "type": "function"
    }
  ],
  "bytecode": "0x608060405234801561001057600080fd5b506101b3806100206000396000f3fe608060405234801561001057600080fd5b506004361061002b5760003560e01c80632a84f72f14610030575b600080fd5b61004a60048036038101906100459190610113565b61004c565b005b813373ffffffffffffffffffffffffffffffffffffffff167f01a17d717671bcb211e1c9b638e97be962bfdb701ce049c95335d6ed5253eec8836040516100939190610162565b60405180910390a35050565b600080fd5b6000819050919050565b6100b7816100a4565b81146100c257600080fd5b50565b6000813590506100d4816100ae565b92915050565b600060ff82169050919050565b6100f0816100da565b81146100fb57600080fd5b50565b60008135905061010d816100e7565b92915050565b6000806040838503121561012a5761012961009f565b5b6000610138858286016100c5565b9250506020610149858286016100fe565b9150509250929050565b61015c816100da565b82525050565b60006020820190506101776000830184610153565b9291505056fea2646970667358221220d11e35335743983477afe34eae01c9c6b2e1ed3e24d86e33bf8cc78a95b83a9c64736f6c63430008150033",
  "linkReferences": {},
  "deployedLinkReferences": {}
}