{
  "_format": "hh-sol-artifact-1",
  "contractName": "Governance",
  "sourceName": "contracts/Governance.sol",
  "abi": [
    {
      "inputs": [],
      "stateMutability": "nonpayable",
      "type": "constructor"
    },
    {
      "inputs": [
        {
          "internalType": "address",
          "name": "owner",
          "type": "address"
        }
      ],
      "name": "OwnableInvalidOwner",
      "type": "error"
    },
    {
      "inputs": [
        {
          "internalType": "address",
          "name": "account",
          "type": "address"
        }
      ],
      "name": "OwnableUnauthorizedAccount",
      "type": "error"
    },
    {
      "anonymous": false,
      "inputs": [
        {
          "indexed": true,
          "internalType": "address",
          "name": "previousOwner",
          "type": "address"
        },
        {
          "indexed": true,
          "internalType": "address",
          "name": "newOwner",
          "type": "address"
        }
      ],
      "name": "OwnershipTransferred",
      "type": "event"
    },
    {
      "anonymous": false,
      "inputs": [
        {
          "indexed": true,
          "internalType": "uint256",
          "name": "proposalId",
          "type": "uint256"
        }
      ],
      "name": "ProposalCanceled",
      "type": "event"
    },
    {
      "anonymous": false,
      "inputs": [
        {
          "indexed": true,
          "internalType": "uint256",
          "name": "proposalId",
          "type": "uint256"
        },
        {
          "indexed": true,
          "internalType": "address",
          "name": "proposer",
          "type": "address"
        },
        {
          "indexed": false,
          "internalType": "string",
          "name": "title",
          "type": "string"
        }
      ],
      "name": "ProposalCreated",
      "type": "event"
    },
    {
      "anonymous": false,
      "inputs": [
        {
          "indexed": true,
          "internalType": "uint256",
          "name": "proposalId",
          "type": "uint256"
        }
      ],
      "name": "ProposalExecuted",
      "type": "event"
    },
    {
      "anonymous": false,
      "inputs": [
        {
          "indexed": true,
          "internalType": "uint256",
          "name": "proposalId",
          "type": "uint256"
        },
        {
          "indexed": true,
          "internalType": "address",
          "name": "voter",
          "type": "address"
        },
        {
          "indexed": false,
          "internalType": "uint8",
          "name": "support",
          "type": "uint8"
        }
      ],
      "name": "Voted",
      "type": "event"
    },
    {
      "inputs": [
        {
          "internalType": "uint256",
          "name": "proposalId",
          "type": "uint256"
        }
      ],
      "name": "cancelProposal",
      "outputs": [],
      "stateMutability": "nonpayable",
      "type": "function"
    },
    {
      "inputs": [
        {
          "internalType": "string",
          "name": "title",
          "type": "string"
        },
        {
          "internalType": "string",
          "name": "description",
          "type": "string"
        }
      ],
      "name": "createProposal",
      "outputs": [
        {
          "internalType": "uint256",
          "name": "",
          "type": "uint256"
        }
      ],
      "stateMutability": "nonpayable",
      "type": "function"
    },
    {
      "inputs": [
        {
          "internalType": "uint256",
          "name": "proposalId",
          "type": "uint256"
        }
      ],
      "name": "executeProposal",
      "outputs": [],
      "stateMutability": "nonpayable",
      "type": "function"
    },
    {
      "inputs": [
        {
          "internalType": "uint256",
          "name": "proposalId",
          "type": "uint256"
        }
      ],
      "name": "getProposal",
      "outputs": [
        {
          "internalType": "uint256",
          "name": "id",
          "type": "uint256"
        },
        {
          "internalType": "address",
          "name": "proposer",
          "type": "address"
        },
        {
          "internalType": "string",
          "name": "title",
          "type": "string"
        },
        {
          "internalType": "string",
          "name": "description",
          "type": "string"
        },
        {
          "internalType": "uint256",
          "name": "forVotes",
          "type": "uint256"
        },
        {
          "internalType": "uint256",
          "name": "againstVotes",
          "type": "uint256"
        },
        {
          "internalType": "uint256",
          "name": "startTime",
          "type": "uint256"
        },
        {
          "internalType": "uint256",
          "name": "endTime",
          "type": "uint256"
        },
        {
          "internalType": "bool",
          "name": "executed",
          "type": "bool"
        },
        {
          "internalType": "bool",
          "name": "canceled",
          "type": "bool"
        }
      ],
      "stateMutability": "view",
      "type": "function"
    },
    {
      "inputs": [],
      "name": "getProposalCount",
      "outputs": [
        {
          "internalType": "uint256",
          "name": "",
          "type": "uint256"
        }
      ],
      "stateMutability": "view",
      "type": "function"
    },
    {
      "inputs": [],
      "name": "owner",
      "outputs": [
        {
          "internalType": "address",
          "name": "",
          "type": "address"
        }
      ],
      "stateMutability": "view",
      "type": "function"
    },
    {
      "inputs": [],
      "name": "proposalThreshold",
      "outputs": [
        {
          "internalType": "uint256",
          "name": "",
          "type": "uint256"
        }
      ],
      "stateMutability": "view",
      "type": "function"
    },
    {
      "inputs": [
        {
          "internalType": "uint256",
          "name": "",
          "type": "uint256"
        }
      ],
      "name": "proposals",
      "outputs": [
        {
          "internalType": "uint256",
          "name": "id",
          "type": "uint256"
        },
        {
          "internalType": "address",
          "name": "proposer",
          "type": "address"
        },
        {
          "internalType": "string",
          "name": "title",
          "type": "string"
        },
        {
          "internalType": "string",
          "name": "description",
          "type": "string"
        },
        {
          "internalType": "uint256",
          "name": "forVotes",
          "type": "uint256"
        },
        {
          "internalType": "uint256",
          "name": "againstVotes",
          "type": "uint256"
        },
        {
          "internalType": "uint256",
          "name": "startTime",
          "type": "uint256"
        },
        {
          "internalType": "uint256",
          "name": "endTime",
          "type": "uint256"
        },
        {
          "internalType": "bool",
          "name": "executed",
          "type": "bool"
        },
        {
          "internalType": "bool",
          "name": "canceled",
          "type": "bool"
        }
      ],
      "stateMutability": "view",
      "type": "function"
    },
    {
      "inputs": [],
      "name": "quorum",
      "outputs": [
        {
          "internalType": "uint256",
          "name": "",
          "type": "uint256"
        }
      ],
      "stateMutability": "view",
      "type": "function"
    },
    {
      "inputs": [],
      "name": "renounceOwnership",
      "outputs": [],
      "stateMutability": "nonpayable",
      "type": "function"
    },
    {
      "inputs": [
        {
          "internalType": "uint256",
          "name": "threshold",
          "type": "uint256"
        }
      ],
      "name": "setProposalThreshold",
      "outputs": [],
      "stateMutability": "nonpayable",
      "type": "function"
    },
    {
      "inputs": [
        {
          "internalType": "uint256",
          "name": "newQuorum",
          "type": "uint256"
        }
      ],
      "name": "setQuorum",
      "outputs": [],
      "stateMutability": "nonpayable",
      "type": "function"
    },
    {
      "inputs": [
        {
          "internalType": "uint256",
          "name": "period",
          "type": "uint256"
        }
      ],
      "name": "setVotingPeriod",
      "outputs": [],
      "stateMutability": "nonpayable",
      "type": "function"
    },
    {
      "inputs": [
        {
          "internalType": "address",
          "name": "user",
          "type": "address"
        },
        {
          "internalType": "uint256",
          "name": "power",
          "type": "uint256"
        }
      ],
      "name": "setVotingPower",
      "outputs": [],
      "stateMutability": "nonpayable",
      "type": "function"
    },
    {
      "inputs": [
        {
          "internalType": "address",
          "name": "newOwner",
          "type": "address"
        }
      ],
      "name": "transferOwnership",
      "outputs": [],
      "stateMutability": "nonpayable",
      "type": "function"
    },
    {
      "inputs": [
        {
          "internalType": "uint256",
          "name": "proposalId",
          "type": "uint256"
        },
        {
          "internalType": "uint8",
          "name": "support",
          "type": "uint8"
        }
      ],
      "name": "vote",
      "outputs": [],
      "stateMutability": "nonpayable",
      "type": "function"
    },
    {
      "inputs": [],
      "name": "votingPeriod",
      "outputs": [
        {
          "internalType": "uint256",
          "name": "",
          "type": "uint256"
        }
      ],
      "stateMutability": "view",
      "type": "function"
    },
    {
      "inputs": [
        {
          "internalType": "address",
          "name": "",
          "type": "address"
        }
      ],
      "name": "votingPower",
      "outputs": [
        {
          "internalType": "uint256",
          "name": "",
          "type": "uint256"
        }
      ],
      "stateMutability": "view",
      "type": "function"
    }
  ],
  "bytecode": "0x608060405260018055683635c9adc5dea000006004556203f48060055569021e19e0c9bab24000006006553480156200003757600080fd5b5033600073ffffffffffffffffffffffffffffffffffffffff168173ffffffffffffffffffffffffffffffffffffffff1603620000ae5760006040517f1e4fbdf7000000000000000000000000000000000000000000000000000000008152600401620000a59190620001cf565b60405180910390fd5b620000bf81620000c660201b60201c565b50620001ec565b60008060009054906101000a900473ffffffffffffffffffffffffffffffffffffffff169050816000806101000a81548173ffffffffffffffffffffffffffffffffffffffff021916908373ffffffffffffffffffffffffffffffffffffffff1602179055508173ffffffffffffffffffffffffffffffffffffffff168173ffffffffffffffffffffffffffffffffffffffff167f8be0079c531659141344cd1fd0a4f28419497f9722a3daafe3b4186f6b6457e060405160405180910390a35050565b600073ffffffffffffffffffffffffffffffffffffffff82169050919050565b6000620001b7826200018a565b9050919050565b620001c981620001aa565b82525050565b6000602082019050620001e66000830184620001be565b92915050565b61233480620001fc6000396000f3fe608060405234801561001057600080fd5b50600436106101165760003560e01c8063b58131b0116100a2578063c7f758a811610071578063c7f758a8146102c4578063e0a8f6f5146102fd578063ea0217cf14610319578063ece40cc114610335578063f2fde38b1461035157610116565b8063b58131b01461023c578063c07473f61461025a578063c08cc02d1461028a578063c1ba4e59146102a857610116565b8063274b91a9116100e9578063274b91a9146101ac57806365e481e2146101c8578063715018a6146101f85780638da5cb5b14610202578063943e82161461022057610116565b8063013cf08b1461011b57806302a251a3146101545780630d61b519146101725780631703a0181461018e575b600080fd5b6101356004803603810190610130919061145a565b61036d565b60405161014b9a99989796959493929190611582565b60405180910390f35b61015c61050b565b604051610169919061162c565b60405180910390f35b61018c6004803603810190610187919061145a565b610511565b005b6101966106f8565b6040516101a3919061162c565b60405180910390f35b6101c660048036038101906101c19190611673565b6106fe565b005b6101e260048036038101906101dd91906117e8565b61074e565b6040516101ef919061162c565b60405180910390f35b6102006108f3565b005b61020a610907565b6040516102179190611860565b60405180910390f35b61023a600480360381019061023591906118b4565b610930565b005b610244610d84565b604051610251919061162c565b60405180910390f35b610274600480360381019061026f91906118f4565b610d8a565b604051610281919061162c565b60405180910390f35b610292610da2565b60405161029f919061162c565b60405180910390f35b6102c260048036038101906102bd919061145a565b610db7565b005b6102de60048036038101906102d9919061145a565b610dc9565b6040516102f49a99989796959493929190611582565b60405180910390f35b6103176004803603810190610312919061145a565b610f93565b005b610333600480360381019061032e919061145a565b611213565b005b61034f600480360381019061034a919061145a565b611225565b005b61036b600480360381019061036691906118f4565b611237565b005b60026020528060005260406000206000915090508060000154908060010160009054906101000a900473ffffffffffffffffffffffffffffffffffffffff16908060020180546103bc90611950565b80601f01602080910402602001604051908101604052809291908181526020018280546103e890611950565b80156104355780601f1061040a57610100808354040283529160200191610435565b820191906000526020600020905b81548152906001019060200180831161041857829003601f168201915b50505050509080600301805461044a90611950565b80601f016020809104026020016040519081016040528092919081815260200182805461047690611950565b80156104c35780601f10610498576101008083540402835291602001916104c3565b820191906000526020600020905b8154815290600101906020018083116104a657829003601f168201915b5050505050908060040154908060050154908060060154908060070154908060080160009054906101000a900460ff16908060080160019054906101000a900460ff1690508a565b60055481565b6000600260008381526020019081526020016000209050600081600001540361056f576040517f08c379a0000000000000000000000000000000000000000000000000000000008152600401610566906119f3565b60405180910390fd5b8060080160009054906101000a900460ff16156105c1576040517f08c379a00000000000000000000000000000000000000000000000000000000081526004016105b890611a85565b60405180910390fd5b8060070154421015610608576040517f08c379a00000000000000000000000000000000000000000000000000000000081526004016105ff90611b17565b60405180910390fd5b6006548160050154826004015461061f9190611b66565b1015610660576040517f08c379a000000000000000000000000000000000000000000000000000000000815260040161065790611be6565b60405180910390fd5b80600501548160040154116106aa576040517f08c379a00000000000000000000000000000000000000000000000000000000081526004016106a190611c52565b60405180910390fd5b60018160080160006101000a81548160ff021916908315150217905550817f712ae1383f79ac853f8d882153778e0260ef8f03b504e2866e0593e04d2b291f60405160405180910390a25050565b60065481565b6107066112bd565b80600360008473ffffffffffffffffffffffffffffffffffffffff1673ffffffffffffffffffffffffffffffffffffffff168152602001908152602001600020819055505050565b6000600454600360003373ffffffffffffffffffffffffffffffffffffffff1673ffffffffffffffffffffffffffffffffffffffff1681526020019081526020016000205410156107d4576040517f08c379a00000000000000000000000000000000000000000000000000000000081526004016107cb90611ce4565b60405180910390fd5b60006001549050600160008154809291906107ee90611d04565b91905055506000600260008381526020019081526020016000209050818160000181905550338160010160006101000a81548173ffffffffffffffffffffffffffffffffffffffff021916908373ffffffffffffffffffffffffffffffffffffffff160217905550848160020190816108679190611ef8565b50838160030190816108799190611ef8565b50428160060181905550600554426108919190611b66565b81600701819055503373ffffffffffffffffffffffffffffffffffffffff16827f7585f467599d0f008985f231af99293be388626ac16ca59505c2f8f88969cd63876040516108e09190611fca565b60405180910390a3819250505092915050565b6108fb6112bd565b6109056000611344565b565b60008060009054906101000a900473ffffffffffffffffffffffffffffffffffffffff16905090565b81600060026000838152602001908152602001600020600001540361098a576040517f08c379a0000000000000000000000000000000000000000000000000000000008152600401610981906119f3565b60405180910390fd5b6002600082815260200190815260200160002060080160009054906101000a900460ff16156109ee576040517f08c379a00000000000000000000000000000000000000000000000000000000081526004016109e590611a85565b60405180910390fd5b6002600082815260200190815260200160002060080160019054906101000a900460ff1615610a52576040517f08c379a0000000000000000000000000000000000000000000000000000000008152600401610a499061205e565b60405180910390fd5b60026000828152602001908152602001600020600701544210610aaa576040517f08c379a0000000000000000000000000000000000000000000000000000000008152600401610aa1906120f0565b60405180910390fd5b60018260ff161480610abf575060028260ff16145b610afe576040517f08c379a0000000000000000000000000000000000000000000000000000000008152600401610af590612182565b60405180910390fd5b6002600084815260200190815260200160002060090160003373ffffffffffffffffffffffffffffffffffffffff1673ffffffffffffffffffffffffffffffffffffffff16815260200190815260200160002060009054906101000a900460ff1615610b9f576040517f08c379a0000000000000000000000000000000000000000000000000000000008152600401610b96906121ee565b60405180910390fd5b600060026000858152602001908152602001600020905060018160090160003373ffffffffffffffffffffffffffffffffffffffff1673ffffffffffffffffffffffffffffffffffffffff16815260200190815260200160002060006101000a81548160ff0219169083151502179055508281600a0160003373ffffffffffffffffffffffffffffffffffffffff1673ffffffffffffffffffffffffffffffffffffffff16815260200190815260200160002060006101000a81548160ff021916908360ff16021790555060018360ff1603610cd457600360003373ffffffffffffffffffffffffffffffffffffffff1673ffffffffffffffffffffffffffffffffffffffff16815260200190815260200160002054816004016000828254610cc89190611b66565b92505081905550610d2f565b600360003373ffffffffffffffffffffffffffffffffffffffff1673ffffffffffffffffffffffffffffffffffffffff16815260200190815260200160002054816005016000828254610d279190611b66565b925050819055505b3373ffffffffffffffffffffffffffffffffffffffff16847f094f80829c509370abb2d421a078ba5926755d3de25d021dacf7bbd19853f7a285604051610d76919061221d565b60405180910390a350505050565b60045481565b60036020528060005260406000206000915090505481565b600060018054610db29190612238565b905090565b610dbf6112bd565b8060068190555050565b6000806060806000806000806000806000600260008d8152602001908152602001600020905080600001548160010160009054906101000a900473ffffffffffffffffffffffffffffffffffffffff16826002018360030184600401548560050154866006015487600701548860080160009054906101000a900460ff168960080160019054906101000a900460ff16878054610e6590611950565b80601f0160208091040260200160405190810160405280929190818152602001828054610e9190611950565b8015610ede5780601f10610eb357610100808354040283529160200191610ede565b820191906000526020600020905b815481529060010190602001808311610ec157829003601f168201915b50505050509750868054610ef190611950565b80601f0160208091040260200160405190810160405280929190818152602001828054610f1d90611950565b8015610f6a5780601f10610f3f57610100808354040283529160200191610f6a565b820191906000526020600020905b815481529060010190602001808311610f4d57829003601f168201915b505050505096509a509a509a509a509a509a509a509a509a509a50509193959799509193959799565b803373ffffffffffffffffffffffffffffffffffffffff166002600083815260200190815260200160002060010160009054906101000a900473ffffffffffffffffffffffffffffffffffffffff1673ffffffffffffffffffffffffffffffffffffffff1614611038576040517f08c379a000000000000000000000000000000000000000000000000000000000815260040161102f906122de565b60405180910390fd5b816000600260008381526020019081526020016000206000015403611092576040517f08c379a0000000000000000000000000000000000000000000000000000000008152600401611089906119f3565b60405180910390fd5b6002600082815260200190815260200160002060080160009054906101000a900460ff16156110f6576040517f08c379a00000000000000000000000000000000000000000000000000000000081526004016110ed90611a85565b60405180910390fd5b6002600082815260200190815260200160002060080160019054906101000a900460ff161561115a576040517f08c379a00000000000000000000000000000000000000000000000000000000081526004016111519061205e565b60405180910390fd5b600260008281526020019081526020016000206007015442106111b2576040517f08c379a00000000000000000000000000000000000000000000000000000000081526004016111a9906120f0565b60405180910390fd5b60016002600085815260200190815260200160002060080160016101000a81548160ff021916908315150217905550827f789cf55be980739dad1d0699b93b58e806b51c9d96619bfa8fe0a28abaa7b30c60405160405180910390a2505050565b61121b6112bd565b8060058190555050565b61122d6112bd565b8060048190555050565b61123f6112bd565b600073ffffffffffffffffffffffffffffffffffffffff168173ffffffffffffffffffffffffffffffffffffffff16036112b15760006040517f1e4fbdf70000000000000000000000000000000000000000000000000000000081526004016112a89190611860565b60405180910390fd5b6112ba81611344565b50565b6112c5611408565b73ffffffffffffffffffffffffffffffffffffffff166112e3610907565b73ffffffffffffffffffffffffffffffffffffffff161461134257611306611408565b6040517f118cdaa70000000000000000000000000000000000000000000000000000000081526004016113399190611860565b60405180910390fd5b565b60008060009054906101000a900473ffffffffffffffffffffffffffffffffffffffff169050816000806101000a81548173ffffffffffffffffffffffffffffffffffffffff021916908373ffffffffffffffffffffffffffffffffffffffff1602179055508173ffffffffffffffffffffffffffffffffffffffff168173ffffffffffffffffffffffffffffffffffffffff167f8be0079c531659141344cd1fd0a4f28419497f9722a3daafe3b4186f6b6457e060405160405180910390a35050565b600033905090565b6000604051905090565b600080fd5b600080fd5b6000819050919050565b61143781611424565b811461144257600080fd5b50565b6000813590506114548161142e565b92915050565b6000602082840312156114705761146f61141a565b5b600061147e84828501611445565b91505092915050565b61149081611424565b82525050565b600073ffffffffffffffffffffffffffffffffffffffff82169050919050565b60006114c182611496565b9050919050565b6114d1816114b6565b82525050565b600081519050919050565b600082825260208201905092915050565b60005b838110156115115780820151818401526020810190506114f6565b60008484015250505050565b6000601f19601f8301169050919050565b6000611539826114d7565b61154381856114e2565b93506115538185602086016114f3565b61155c8161151d565b840191505092915050565b60008115159050919050565b61157c81611567565b82525050565b600061014082019050611598600083018d611487565b6115a5602083018c6114c8565b81810360408301526115b7818b61152e565b905081810360608301526115cb818a61152e565b90506115da6080830189611487565b6115e760a0830188611487565b6115f460c0830187611487565b61160160e0830186611487565b61160f610100830185611573565b61161d610120830184611573565b9b9a5050505050505050505050565b60006020820190506116416000830184611487565b92915050565b611650816114b6565b811461165b57600080fd5b50565b60008135905061166d81611647565b92915050565b6000806040838503121561168a5761168961141a565b5b60006116988582860161165e565b92505060206116a985828601611445565b9150509250929050565b600080fd5b600080fd5b7f4e487b7100000000000000000000000000000000000000000000000000000000600052604160045260246000fd5b6116f58261151d565b810181811067ffffffffffffffff82111715611714576117136116bd565b5b80604052505050565b6000611727611410565b905061173382826116ec565b919050565b600067ffffffffffffffff821115611753576117526116bd565b5b61175c8261151d565b9050602081019050919050565b82818337600083830152505050565b600061178b61178684611738565b61171d565b9050828152602081018484840111156117a7576117a66116b8565b5b6117b2848285611769565b509392505050565b600082601f8301126117cf576117ce6116b3565b5b81356117df848260208601611778565b91505092915050565b600080604083850312156117ff576117fe61141a565b5b600083013567ffffffffffffffff81111561181d5761181c61141f565b5b611829858286016117ba565b925050602083013567ffffffffffffffff81111561184a5761184961141f565b5b611856858286016117ba565b9150509250929050565b600060208201905061187560008301846114c8565b92915050565b600060ff82169050919050565b6118918161187b565b811461189c57600080fd5b50565b6000813590506118ae81611888565b92915050565b600080604083850312156118cb576118ca61141a565b5b60006118d985828601611445565b92505060206118ea8582860161189f565b9150509250929050565b60006020828403121561190a5761190961141a565b5b60006119188482850161165e565b91505092915050565b7f4e487b7100000000000000000000000000000000000000000000000000000000600052602260045260246000fd5b6000600282049050600182168061196857607f821691505b60208210810361197b5761197a611921565b5b50919050565b7f476f7665726e616e63653a2070726f706f73616c20646f6573206e6f7420657860008201527f6973740000000000000000000000000000000000000000000000000000000000602082015250565b60006119dd6023836114e2565b91506119e882611981565b604082019050919050565b60006020820190508181036000830152611a0c816119d0565b9050919050565b7f476f7665726e616e63653a2070726f706f73616c20616c72656164792065786560008201527f6375746564000000000000000000000000000000000000000000000000000000602082015250565b6000611a6f6025836114e2565b9150611a7a82611a13565b604082019050919050565b60006020820190508181036000830152611a9e81611a62565b9050919050565b7f476f7665726e616e63653a2070726f706f73616c206e6f742079657420656e6460008201527f6564000000000000000000000000000000000000000000000000000000000000602082015250565b6000611b016022836114e2565b9150611b0c82611aa5565b604082019050919050565b60006020820190508181036000830152611b3081611af4565b9050919050565b7f4e487b7100000000000000000000000000000000000000000000000000000000600052601160045260246000fd5b6000611b7182611424565b9150611b7c83611424565b9250828201905080821115611b9457611b93611b37565b5b92915050565b7f476f7665726e616e63653a2071756f72756d206e6f7420726561636865640000600082015250565b6000611bd0601e836114e2565b9150611bdb82611b9a565b602082019050919050565b60006020820190508181036000830152611bff81611bc3565b9050919050565b7f476f7665726e616e63653a2070726f706f73616c206e6f742070617373656400600082015250565b6000611c3c601f836114e2565b9150611c4782611c06565b602082019050919050565b60006020820190508181036000830152611c6b81611c2f565b9050919050565b7f476f7665726e616e63653a2070726f706f73657220766f7465732062656c6f7760008201527f2070726f706f73616c207468726573686f6c6400000000000000000000000000602082015250565b6000611cce6033836114e2565b9150611cd982611c72565b604082019050919050565b60006020820190508181036000830152611cfd81611cc1565b9050919050565b6000611d0f82611424565b91507fffffffffffffffffffffffffffffffffffffffffffffffffffffffffffffffff8203611d4157611d40611b37565b5b600182019050919050565b60008190508160005260206000209050919050565b60006020601f8301049050919050565b600082821b905092915050565b600060088302611dae7fffffffffffffffffffffffffffffffffffffffffffffffffffffffffffffffff82611d71565b611db88683611d71565b95508019841693508086168417925050509392505050565b6000819050919050565b6000611df5611df0611deb84611424565b611dd0565b611424565b9050919050565b6000819050919050565b611e0f83611dda565b611e23611e1b82611dfc565b848454611d7e565b825550505050565b600090565b611e38611e2b565b611e43818484611e06565b505050565b5b81811015611e6757611e5c600082611e30565b600181019050611e49565b5050565b601f821115611eac57611e7d81611d4c565b611e8684611d61565b81016020851015611e95578190505b611ea9611ea185611d61565b830182611e48565b50505b505050565b600082821c905092915050565b6000611ecf60001984600802611eb1565b1980831691505092915050565b6000611ee88383611ebe565b9150826002028217905092915050565b611f01826114d7565b67ffffffffffffffff811115611f1a57611f196116bd565b5b611f248254611950565b611f2f828285611e6b565b600060209050601f831160018114611f625760008415611f50578287015190505b611f5a8582611edc565b865550611fc2565b601f198416611f7086611d4c565b60005b82811015611f9857848901518255600182019150602085019450602081019050611f73565b86831015611fb55784890151611fb1601f891682611ebe565b8355505b6001600288020188555050505b505050505050565b60006020820190508181036000830152611fe4818461152e565b905092915050565b7f476f7665726e616e63653a2070726f706f73616c20616c72656164792063616e60008201527f63656c6564000000000000000000000000000000000000000000000000000000602082015250565b60006120486025836114e2565b915061205382611fec565b604082019050919050565b600060208201905081810360008301526120778161203b565b9050919050565b7f476f7665726e616e63653a2070726f706f73616c20616c726561647920656e6460008201527f6564000000000000000000000000000000000000000000000000000000000000602082015250565b60006120da6022836114e2565b91506120e58261207e565b604082019050919050565b60006020820190508181036000830152612109816120cd565b9050919050565b7f476f7665726e616e63653a20696e76616c69642076616c756520666f7220656e60008201527f756d20566f746500000000000000000000000000000000000000000000000000602082015250565b600061216c6027836114e2565b915061217782612110565b604082019050919050565b6000602082019050818103600083015261219b8161215f565b9050919050565b7f476f7665726e616e63653a20616c726561647920766f74656400000000000000600082015250565b60006121d86019836114e2565b91506121e3826121a2565b602082019050919050565b60006020820190508181036000830152612207816121cb565b9050919050565b6122178161187b565b82525050565b6000602082019050612232600083018461220e565b92915050565b600061224382611424565b915061224e83611424565b925082820390508181111561226657612265611b37565b5b92915050565b7f476f7665726e616e63653a2063616c6c6572206973206e6f742074686520707260008201527f6f706f7365720000000000000000000000000000000000000000000000000000602082015250565b60006122c86026836114e2565b91506122d38261226c565b604082019050919050565b600060208201905081810360008301526122f7816122bb565b905091905056fea2646970667358221220d303398ac12516cf780930104064b62050eac40f740c01291af7904c4717bfec64736f6c63430008150033",
  "linkReferences": {},
  "deployedLinkReferences": {}
}